{
  "contractName": "AvastarPrintRegistryMinter",
  "abi": [
    {
      "constant": true,
      "inputs": [],
      "name": "aprContract",
      "outputs": [
        {
          "name": "",
          "type": "address"
        }
      ],
      "payable": false,
      "stateMutability": "view",
      "type": "function"
    },
    {
      "constant": true,
      "inputs": [],
      "name": "avastarsContract",
      "outputs": [
        {
          "name": "",
          "type": "address"
        }
      ],
      "payable": false,
      "stateMutability": "view",
      "type": "function"
    },
    {
      "constant": true,
      "inputs": [
        {
          "name": "",
          "type": "address"
        }
      ],
      "name": "addressToCreditsToSpend",
      "outputs": [
        {
          "name": "",
          "type": "uint256"
        }
      ],
      "payable": false,
      "stateMutability": "view",
      "type": "function"
    },
    {
      "constant": true,
      "inputs": [],
      "name": "owner1",
      "outputs": [
        {
          "name": "",
          "type": "address"
        }
      ],
      "payable": false,
      "stateMutability": "view",
      "type": "function"
    },
    {
      "constant": true,
      "inputs": [
        {
          "name": "",
          "type": "address"
        }
      ],
      "name": "managerAddressToCreditsToGive",
      "outputs": [
        {
          "name": "",
          "type": "uint256"
        }
      ],
      "payable": false,
      "stateMutability": "view",
      "type": "function"
    },
    {
      "constant": true,
      "inputs": [],
      "name": "printerAddress",
      "outputs": [
        {
          "name": "",
          "type": "address"
        }
      ],
      "payable": false,
      "stateMutability": "view",
      "type": "function"
    },
    {
      "constant": true,
      "inputs": [
        {
          "name": "",
          "type": "uint256"
        }
      ],
      "name": "artIdToCreditsToSpend",
      "outputs": [
        {
          "name": "",
          "type": "uint256"
        }
      ],
      "payable": false,
      "stateMutability": "view",
      "type": "function"
    },
    {
      "inputs": [
        {
          "name": "_printerAddress",
          "type": "address"
        },
        {
          "name": "_registryContract",
          "type": "address"
        },
        {
          "name": "_artContract",
          "type": "address"
        }
      ],
      "payable": false,
      "stateMutability": "nonpayable",
      "type": "constructor"
    },
    {
      "constant": false,
      "inputs": [
        {
          "name": "_avastarId",
          "type": "uint256"
        },
        {
          "name": "_contactMethodAndType",
          "type": "string"
        }
      ],
      "name": "mint",
      "outputs": [
        {
          "name": "_tokenId",
          "type": "uint256"
        }
      ],
      "payable": false,
      "stateMutability": "nonpayable",
      "type": "function"
    },
    {
      "constant": false,
      "inputs": [
        {
          "name": "_artId",
          "type": "uint256"
        }
      ],
      "name": "giveArtCredit",
      "outputs": [],
      "payable": true,
      "stateMutability": "payable",
      "type": "function"
    },
    {
      "constant": false,
      "inputs": [
        {
          "name": "_recipient",
          "type": "address"
        }
      ],
      "name": "giveAddressCredit",
      "outputs": [],
      "payable": true,
      "stateMutability": "payable",
      "type": "function"
    },
    {
      "constant": false,
      "inputs": [
        {
          "name": "_artId",
          "type": "uint256"
        }
      ],
      "name": "removeArtCredit",
      "outputs": [],
      "payable": false,
      "stateMutability": "nonpayable",
      "type": "function"
    },
    {
      "constant": false,
      "inputs": [
        {
          "name": "_recipient",
          "type": "address"
        }
      ],
      "name": "removeAddressCredit",
      "outputs": [],
      "payable": false,
      "stateMutability": "nonpayable",
      "type": "function"
    },
    {
      "constant": false,
      "inputs": [
        {
          "name": "_printerAddress",
          "type": "address"
        }
      ],
      "name": "updatePrinterAddress",
      "outputs": [
        {
          "name": "",
          "type": "bool"
        }
      ],
      "payable": false,
      "stateMutability": "nonpayable",
      "type": "function"
    },
    {
      "constant": false,
      "inputs": [
        {
          "name": "_manager",
          "type": "address"
        },
        {
          "name": "_credits",
          "type": "uint256"
        }
      ],
      "name": "setManagerCredits",
      "outputs": [
        {
          "name": "",
          "type": "bool"
        }
      ],
      "payable": false,
      "stateMutability": "nonpayable",
      "type": "function"
    }
  ],
  "bytecode": "0x608060405234801561001057600080fd5b50604051606080610d9d8339810180604052606081101561003057600080fd5b508051602082015160409092015160008054600160a060020a03948516600160a060020a03199182161790915560018054928516928216929092179091556002805482163317905560038054939092169216919091179055610d06806100976000396000f3fe6080604052600436106100b65763ffffffff60e060020a60003504166310cdafcd81146100bb5780633176c299146100ec578063321dbe26146101015780635a0d33771461014e5780635eaafbca1461016d57806373688914146101b257806377097fc8146101c757806397038a5814610281578063b0e79d14146102b4578063c4230b11146102e7578063d39e546c14610311578063e243151014610344578063f27f25d11461036a578063f7b822df1461037f575b600080fd5b3480156100c757600080fd5b506100d06103a9565b60408051600160a060020a039092168252519081900360200190f35b3480156100f857600080fd5b506100d06103b8565b34801561010d57600080fd5b5061013a6004803603604081101561012457600080fd5b50600160a060020a0381351690602001356103c7565b604080519115158252519081900360200190f35b61016b6004803603602081101561016457600080fd5b5035610419565b005b34801561017957600080fd5b506101a06004803603602081101561019057600080fd5b5035600160a060020a03166105c5565b60408051918252519081900360200190f35b3480156101be57600080fd5b506100d06105d7565b3480156101d357600080fd5b506101a0600480360360408110156101ea57600080fd5b8135919081019060408101602082013564010000000081111561020c57600080fd5b82018360208201111561021e57600080fd5b8035906020019184600183028401116401000000008311171561024057600080fd5b91908080601f0160208091040260200160405190810160405280939291908181526020018383808284376000920191909152509295506105e6945050505050565b34801561028d57600080fd5b506101a0600480360360208110156102a457600080fd5b5035600160a060020a0316610894565b3480156102c057600080fd5b5061016b600480360360208110156102d757600080fd5b5035600160a060020a03166108a6565b3480156102f357600080fd5b5061016b6004803603602081101561030a57600080fd5b50356109c5565b34801561031d57600080fd5b5061013a6004803603602081101561033457600080fd5b5035600160a060020a0316610ad1565b61016b6004803603602081101561035a57600080fd5b5035600160a060020a0316610b34565b34801561037657600080fd5b506100d0610c99565b34801561038b57600080fd5b506101a0600480360360208110156103a257600080fd5b5035610ca8565b600054600160a060020a031681565b600154600160a060020a031681565b600254600090600160a060020a03163314806103ed5750600354600160a060020a031633145b15156103f857600080fd5b50600160a060020a0391909116600090815260066020526040902055600190565b33600090815260066020526040812054908111806104415750600254600160a060020a031633145b806104565750600354600160a060020a031633145b806104db57506000809054906101000a9004600160a060020a0316600160a060020a031663346f151d6040518163ffffffff1660e060020a02815260040160206040518083038186803b1580156104ac57600080fd5b505afa1580156104c0573d6000803e3d6000fd5b505050506040513d60208110156104d657600080fd5b505134145b151561051f576040805160e560020a62461bcd0281526020600482015260196024820152600080516020610cbb833981519152604482015290519081900360640190fd5b60008281526004602052604081208054600101905534111561057a57600354604051600160a060020a03909116903480156108fc02916000818181858888f19350505050158015610574573d6000803e3d6000fd5b506105c0565b600254600160a060020a031633148061059d5750600354600160a060020a031633145b156105a857506105c2565b33600090815260066020526040902080546000190190555b505b50565b60056020526000908152604090205481565b600254600160a060020a031681565b600082815260046020818152604080842054338552600583528185205460015483517f6352211e000000000000000000000000000000000000000000000000000000008152958601899052925191949093600160a060020a0390931692636352211e92602480840193829003018186803b15801561066357600080fd5b505afa158015610677573d6000803e3d6000fd5b505050506040513d602081101561068d57600080fd5b5051600160a060020a031633146106ee576040805160e560020a62461bcd02815260206004820152601560248201527f596f75206d757374206f776e2041766173746172210000000000000000000000604482015290519081900360640190fd5b60008211806106fd5750600081115b1515610753576040805160e560020a62461bcd02815260206004820152601360248201527f4d75737420686176652061206372656469742100000000000000000000000000604482015290519081900360640190fd5b60008054604080517f77097fc80000000000000000000000000000000000000000000000000000000081526004810189815260248201928352885160448301528851600160a060020a03909416936377097fc8938b938b939260649091019060208501908083838c5b838110156107d45781810151838201526020016107bc565b50505050905090810190601f1680156108015780820380516001836020036101000a031916815260200191505b509350505050602060405180830381600087803b15801561082157600080fd5b505af1158015610835573d6000803e3d6000fd5b505050506040513d602081101561084b57600080fd5b505190506000831115610873576000868152600460205260409020805460001901905561088b565b33600090815260056020526040902080546000190190555b95945050505050565b60066020526000908152604090205481565b600160a060020a03811660009081526005602052604081205490811161093c576040805160e560020a62461bcd02815260206004820152602160248201527f5468657265206d75737420626520612063726564697420746f2072656d6f766560448201527f2100000000000000000000000000000000000000000000000000000000000000606482015290519081900360840190fd5b600254600160a060020a031633148061095f5750600354600160a060020a031633145b15156109a3576040805160e560020a62461bcd0281526020600482015260196024820152600080516020610cbb833981519152604482015290519081900360640190fd5b50600160a060020a031660009081526005602052604090208054600019019055565b600081815260046020526040812054908111610a51576040805160e560020a62461bcd02815260206004820152602160248201527f5468657265206d75737420626520612063726564697420746f2072656d6f766560448201527f2100000000000000000000000000000000000000000000000000000000000000606482015290519081900360840190fd5b600254600160a060020a0316331480610a745750600354600160a060020a031633145b1515610ab8576040805160e560020a62461bcd0281526020600482015260196024820152600080516020610cbb833981519152604482015290519081900360640190fd5b5060009081526004602052604090208054600019019055565b600254600090600160a060020a0316331480610af75750600354600160a060020a031633145b1515610b0257600080fd5b5060038054600160a060020a03831673ffffffffffffffffffffffffffffffffffffffff199091161790556001919050565b3360009081526006602052604081205490811180610b5c5750600254600160a060020a031633145b80610b715750600354600160a060020a031633145b80610bf657506000809054906101000a9004600160a060020a0316600160a060020a031663346f151d6040518163ffffffff1660e060020a02815260040160206040518083038186803b158015610bc757600080fd5b505afa158015610bdb573d6000803e3d6000fd5b505050506040513d6020811015610bf157600080fd5b505134145b1515610c3a576040805160e560020a62461bcd0281526020600482015260196024820152600080516020610cbb833981519152604482015290519081900360640190fd5b600160a060020a03821660009081526005602052604081208054600101905534111561057a57600354604051600160a060020a03909116903480156108fc02916000818181858888f19350505050158015610574573d6000803e3d6000fd5b600354600160a060020a031681565b6004602052600090815260409020548156fe596f75206d7573742068617665207065726d697373696f6e2100000000000000a165627a7a7230582001d1b605b9c092a9d2abc07866bad6c8d1b852d71ff4634739993e8b2e3425d00029",
  "source": "\n/**************\n\n * Copyright Art Blocks LLC 2020. www.artblocks.io.\n *************/\n\n\n\n\n// File: openzeppelin-solidity/contracts/math/SafeMath.sol\n\n\n\npragma solidity ^0.5.0;\n\n/**\n * @dev Wrappers over Solidity's arithmetic operations with added overflow\n * checks.\n *\n * Arithmetic operations in Solidity wrap on overflow. This can easily result\n * in bugs, because programmers usually assume that an overflow raises an\n * error, which is the standard behavior in high level programming languages.\n * `SafeMath` restores this intuition by reverting the transaction when an\n * operation overflows.\n *\n * Using this library instead of the unchecked operations eliminates an entire\n * class of bugs, so it's recommended to use it always.\n */\nlibrary SafeMath {\n    /**\n     * @dev Returns the addition of two unsigned integers, reverting on\n     * overflow.\n     *\n     * Counterpart to Solidity's `+` operator.\n     *\n     * Requirements:\n     * - Addition cannot overflow.\n     */\n    function add(uint256 a, uint256 b) internal pure returns (uint256) {\n        uint256 c = a + b;\n        require(c >= a, \"SafeMath: addition overflow\");\n\n        return c;\n    }\n\n    /**\n     * @dev Returns the subtraction of two unsigned integers, reverting on\n     * overflow (when the result is negative).\n     *\n     * Counterpart to Solidity's `-` operator.\n     *\n     * Requirements:\n     * - Subtraction cannot overflow.\n     */\n    function sub(uint256 a, uint256 b) internal pure returns (uint256) {\n        require(b <= a, \"SafeMath: subtraction overflow\");\n        uint256 c = a - b;\n\n        return c;\n    }\n\n    /**\n     * @dev Returns the multiplication of two unsigned integers, reverting on\n     * overflow.\n     *\n     * Counterpart to Solidity's `*` operator.\n     *\n     * Requirements:\n     * - Multiplication cannot overflow.\n     */\n    function mul(uint256 a, uint256 b) internal pure returns (uint256) {\n        // Gas optimization: this is cheaper than requiring 'a' not being zero, but the\n        // benefit is lost if 'b' is also tested.\n        // See: https://github.com/OpenZeppelin/openzeppelin-solidity/pull/522\n        if (a == 0) {\n            return 0;\n        }\n\n        uint256 c = a * b;\n        require(c / a == b, \"SafeMath: multiplication overflow\");\n\n        return c;\n    }\n\n    /**\n     * @dev Returns the integer division of two unsigned integers. Reverts on\n     * division by zero. The result is rounded towards zero.\n     *\n     * Counterpart to Solidity's `/` operator. Note: this function uses a\n     * `revert` opcode (which leaves remaining gas untouched) while Solidity\n     * uses an invalid opcode to revert (consuming all remaining gas).\n     *\n     * Requirements:\n     * - The divisor cannot be zero.\n     */\n    function div(uint256 a, uint256 b) internal pure returns (uint256) {\n        // Solidity only automatically asserts when dividing by 0\n        require(b > 0, \"SafeMath: division by zero\");\n        uint256 c = a / b;\n        // assert(a == b * c + a % b); // There is no case in which this doesn't hold\n\n        return c;\n    }\n\n    /**\n     * @dev Returns the remainder of dividing two unsigned integers. (unsigned integer modulo),\n     * Reverts when dividing by zero.\n     *\n     * Counterpart to Solidity's `%` operator. This function uses a `revert`\n     * opcode (which leaves remaining gas untouched) while Solidity uses an\n     * invalid opcode to revert (consuming all remaining gas).\n     *\n     * Requirements:\n     * - The divisor cannot be zero.\n     */\n    function mod(uint256 a, uint256 b) internal pure returns (uint256) {\n        require(b != 0, \"SafeMath: modulo by zero\");\n        return a % b;\n    }\n}\n\n// File: openzeppelin-solidity/contracts/utils/Address.sol\n\npragma solidity ^0.5.0;\n\n/**\n * @dev Collection of functions related to the address type,\n */\nlibrary Address {\n    /**\n     * @dev Returns true if `account` is a contract.\n     *\n     * This test is non-exhaustive, and there may be false-negatives: during the\n     * execution of a contract's constructor, its address will be reported as\n     * not containing a contract.\n     *\n     * > It is unsafe to assume that an address for which this function returns\n     * false is an externally-owned account (EOA) and not a contract.\n     */\n    function isContract(address account) internal view returns (bool) {\n        // This method relies in extcodesize, which returns 0 for contracts in\n        // construction, since the code is only stored at the end of the\n        // constructor execution.\n\n        uint256 size;\n        // solhint-disable-next-line no-inline-assembly\n        assembly { size := extcodesize(account) }\n        return size > 0;\n    }\n}\n\n// File: openzeppelin-solidity/contracts/drafts/Counters.sol\n\npragma solidity ^0.5.0;\n\n\n/**\n * @title Counters\n * @author Matt Condon (@shrugs)\n * @dev Provides counters that can only be incremented or decremented by one. This can be used e.g. to track the number\n * of elements in a mapping, issuing ERC721 ids, or counting request ids.\n *\n * Include with `using Counters for Counters.Counter;`\n * Since it is not possible to overflow a 256 bit integer with increments of one, `increment` can skip the SafeMath\n * overflow check, thereby saving gas. This does assume however correct usage, in that the underlying `_value` is never\n * directly accessed.\n */\nlibrary Counters {\n    using SafeMath for uint256;\n\n    struct Counter {\n        // This variable should never be directly accessed by users of the library: interactions must be restricted to\n        // the library's function. As of Solidity v0.5.2, this cannot be enforced, though there is a proposal to add\n        // this feature: see https://github.com/ethereum/solidity/issues/4637\n        uint256 _value; // default: 0\n    }\n\n    function current(Counter storage counter) internal view returns (uint256) {\n        return counter._value;\n    }\n\n    function increment(Counter storage counter) internal {\n        counter._value += 1;\n    }\n\n    function decrement(Counter storage counter) internal {\n        counter._value = counter._value.sub(1);\n    }\n}\n\n// File: contracts/Strings.sol\n\npragma solidity ^0.5.0;\n\n//https://github.com/oraclize/ethereum-api/blob/master/oraclizeAPI_0.5.sol\nlibrary Strings {\n\n    function strConcat(string memory _a, string memory _b) internal pure returns (string memory _concatenatedString) {\n        return strConcat(_a, _b, \"\", \"\", \"\");\n    }\n\n    function strConcat(string memory _a, string memory _b, string memory _c) internal pure returns (string memory _concatenatedString) {\n        return strConcat(_a, _b, _c, \"\", \"\");\n    }\n\n    function strConcat(string memory _a, string memory _b, string memory _c, string memory _d) internal pure returns (string memory _concatenatedString) {\n        return strConcat(_a, _b, _c, _d, \"\");\n    }\n\n    function strConcat(string memory _a, string memory _b, string memory _c, string memory _d, string memory _e) internal pure returns (string memory _concatenatedString) {\n        bytes memory _ba = bytes(_a);\n        bytes memory _bb = bytes(_b);\n        bytes memory _bc = bytes(_c);\n        bytes memory _bd = bytes(_d);\n        bytes memory _be = bytes(_e);\n        string memory abcde = new string(_ba.length + _bb.length + _bc.length + _bd.length + _be.length);\n        bytes memory babcde = bytes(abcde);\n        uint k = 0;\n        uint i = 0;\n        for (i = 0; i < _ba.length; i++) {\n            babcde[k++] = _ba[i];\n        }\n        for (i = 0; i < _bb.length; i++) {\n            babcde[k++] = _bb[i];\n        }\n        for (i = 0; i < _bc.length; i++) {\n            babcde[k++] = _bc[i];\n        }\n        for (i = 0; i < _bd.length; i++) {\n            babcde[k++] = _bd[i];\n        }\n        for (i = 0; i < _be.length; i++) {\n            babcde[k++] = _be[i];\n        }\n        return string(babcde);\n    }\n\n    function uint2str(uint _i) internal pure returns (string memory _uintAsString) {\n        if (_i == 0) {\n            return \"0\";\n        }\n        uint j = _i;\n        uint len;\n        while (j != 0) {\n            len++;\n            j /= 10;\n        }\n        bytes memory bstr = new bytes(len);\n        uint k = len - 1;\n        while (_i != 0) {\n            bstr[k--] = byte(uint8(48 + _i % 10));\n            _i /= 10;\n        }\n        return string(bstr);\n    }\n}\n\npragma solidity ^0.5.0;\n\ninterface AvastarPrintRegistryInterface {\n\n    function mint(uint256 _avastarId, string calldata _nfc) external returns (uint256 _tokenId);\n    function pricePerPrintIntlShipInWei() external view returns (uint256 _pricePerPrintIntlShipInWei);\n}\n\npragma solidity ^0.5.0;\n\ninterface AvastarsInterface {\n\n    function ownerOf(uint256 _avastarId) external view returns (address);\n}\n\n// File: contracts/AvastarPrintRegistryMinter.sol\n\npragma solidity ^0.5.0;\n\ncontract AvastarPrintRegistryMinter  {\n    using SafeMath for uint256;\n\n    ///////////////\n    // Variables //\n    ///////////////\n\n\n    AvastarPrintRegistryInterface public aprContract;\n    AvastarsInterface public avastarsContract;\n\n    address public owner1;\n    address payable public printerAddress;\n\n    mapping(uint256 => uint256) public artIdToCreditsToSpend;\n    mapping(address => uint256) public addressToCreditsToSpend;\n    mapping(address => uint256) public managerAddressToCreditsToGive;\n\n\n\n\n\n    /////////////////\n    // Constructor //\n    /////////////////\n\n    constructor(address payable _printerAddress, address _registryContract, address _artContract) public {\n\n        aprContract = AvastarPrintRegistryInterface(_registryContract);\n        avastarsContract = AvastarsInterface(_artContract);\n        owner1 = msg.sender;\n        printerAddress = _printerAddress;\n\n    }\n\n    //////////////////////////////\n    // Minting Function         //\n    //////////////////////////////\n\n    function mint(uint256 _avastarId, string memory _contactMethodAndType) public returns (uint256 _tokenId) {\n        uint256 artCreditBalance = artIdToCreditsToSpend[_avastarId];\n        uint256 addressCreditBalance = addressToCreditsToSpend[msg.sender];\n        require(msg.sender == avastarsContract.ownerOf(_avastarId), \"You must own Avastar!\");\n        require(artCreditBalance>0 || addressCreditBalance >0 , \"Must have a credit!\");\n        uint256 mintedToken = aprContract.mint(_avastarId, _contactMethodAndType);\n        if (artCreditBalance >0) {\n        artIdToCreditsToSpend[_avastarId] --;\n        } else {\n        addressToCreditsToSpend[msg.sender] --;\n        }\n        return mintedToken;\n    }\n\n    //////////////////////////////\n    // Manager Function         //\n    //////////////////////////////\n\n    function giveArtCredit(uint256 _artId) public payable {\n        uint creditsToGive = managerAddressToCreditsToGive[msg.sender];\n        require(creditsToGive>0 || msg.sender==owner1 || msg.sender==printerAddress || msg.value==aprContract.pricePerPrintIntlShipInWei(), \"You must have permission!\");\n        artIdToCreditsToSpend[_artId] ++;\n\n        if (msg.value>0) {\n                printerAddress.transfer(msg.value);\n            } else {\n                if (msg.sender==owner1 || msg.sender==printerAddress){\n                    return;\n                } else {\n                    managerAddressToCreditsToGive[msg.sender] --;\n                }\n            }\n    }\n\n    function giveAddressCredit(address _recipient) public payable {\n        uint creditsToGive = managerAddressToCreditsToGive[msg.sender];\n        require(creditsToGive>0 || msg.sender==owner1 || msg.sender==printerAddress || msg.value==aprContract.pricePerPrintIntlShipInWei(), \"You must have permission!\");\n        addressToCreditsToSpend[_recipient] ++;\n\n        if (msg.value>0) {\n                printerAddress.transfer(msg.value);\n            } else {\n                if (msg.sender==owner1 || msg.sender==printerAddress){\n                    return;\n                } else {\n                    managerAddressToCreditsToGive[msg.sender] --;\n                }\n            }\n    }\n\n\n    function removeArtCredit(uint256 _artId) public {\n        uint creditsToSpend = artIdToCreditsToSpend[_artId];\n        require(creditsToSpend>0, \"There must be a credit to remove!\");\n        require(msg.sender==owner1 || msg.sender==printerAddress , \"You must have permission!\");\n        artIdToCreditsToSpend[_artId] --;\n    }\n\n    function removeAddressCredit(address _recipient) public {\n        uint creditsToSpend = addressToCreditsToSpend[_recipient];\n        require(creditsToSpend>0, \"There must be a credit to remove!\");\n        require(msg.sender==owner1 || msg.sender==printerAddress , \"You must have permission!\");\n        addressToCreditsToSpend[_recipient] --;\n    }\n\n    //////////////////////////////\n    // Owner Functions          //\n    //////////////////////////////\n\n    function updatePrinterAddress(address payable _printerAddress) public returns (bool) {\n        require(msg.sender == owner1 || msg.sender == printerAddress);\n        printerAddress = _printerAddress;\n        return true;\n    }\n\n    function setManagerCredits(address _manager, uint _credits) public returns (bool) {\n        require(msg.sender == owner1 || msg.sender == printerAddress);\n        managerAddressToCreditsToGive[_manager]=_credits;\n        return true;\n    }\n\n}\n",
  "sourcePath": "/Users/Erick/Documents/Print Apps/avastarprintapp/contracts/AvastarPrintRegistryMinter.sol",
  "compiler": {
    "name": "solc",
    "version": "0.5.0+commit.1d4f565a.Emscripten.clang"
  },
  "schemaVersion": "3.0.22",
  "updatedAt": "2020-03-10T02:23:50.721Z",
  "networkType": "ethereum",
  "devdoc": {
    "methods": {}
  },
  "userdoc": {
    "methods": {
      "constructor": "//////////////",
      "giveArtCredit(uint256)": {
        "notice": "///////////////////////////"
      },
      "mint(uint256,string)": {
        "notice": "///////////////////////////"
      },
      "updatePrinterAddress(address)": {
        "notice": "///////////////////////////"
      }
    }
  }
}